:1000000080314728053008007E1480310B1F0928F5
:100010000A2845282100111E0E280F281A28200022
:10002000111E132814281A2839088A0038080A00D3
:10003000803145282100911E1E281F282A282000D3
:10004000911E232824282A2837088A0036080A0007
:10005000803145282100921D2E282F283A28200083
:10006000921D332834283A283D088A003C080A00AB
:10007000803145282100911D3E283F284528200039
:10008000911D43284428452834287E1009008031DA
:1000900049288F31D2278031EA00FD0120308400C9
:1000A000003085002630873199278031A0308400C8
:1000B000003085004D308731992780317E10200037
:1000C000803162288631612680318B170B1787318A
:1000D0004C2780314E308131652180312000CF01A5
:1000E000CF0A01308331F8238031DA302000CF008D
:1000F0008630D0008531B92580312000CF01CF0A6C
:1001000002308331F823803173302000CF008730F4
:10011000D0008531B925803105302000E9000F304D
:10012000E800F130890B9228E80B9228E90B92281D
:1001300066302000E9007630E800C130890B9E2847
:10014000E80B9E28E90B9E2887314C2780314E30E2
:100150008131652180312000CF01CF0A0130833108
:10016000F823803119302000CF008730D00085314E
:10017000B92580312000CF01CF0A02308331F82326
:100180008031E7302000CF008330D0008531B925A1
:10019000803105302000E9000F30E800F130890B94
:1001A000CF28E80BCF28E90BCF2820000F18D9283B
:1001B000DA28EB2822000C1415302000E9004B301F
:1001C000E800BE30890BE228E80BE228E90BE228C0
:1001D000000022000C100C30853198258031200061
:1001E0004A082100EE00200049082100ED006E08B9
:1001F000803A2000E80081306802031D0229F430B3
:1002000021006D02031805290629092922000C1472
:100210000B2922000C1020000F190F2910292E295C
:1002200022008C1461302000E4008730E500863124
:100230007426803115302000E9004B30E800BE30D4
:10024000890B2029E80B2029E90B20290000220036
:100250008C1020000F1D2D292E2929294008031953
:100260003229332998288431DB2480312000E800AA
:1002700068082100EF00522922008C140A30200067
:10028000E4008730E500863174268031982822000A
:100290008C10CA302000E4008630E50086317426D8
:1002A000803198286F082000E800E9016908003AC9
:1002B00003195B2998286808303A03194729013A3D
:1002C00003193C299828803147282000D100510883
:1002D000CF004F08BE00003086314D2681319C3062
:1002E0002000CF00D730890B7329CF0B732903303F
:1002F0008631212681311A302000CF00F830890B59
:100300007F29CF0B7F2900000330863121268131E0
:100310001A302000CF00F830890B8C29CF0B8C29A4
:10032000000003308631212681311A302000CF00B1
:10033000F830890B9929CF0B9929000002308631BA
:10034000212681311A302000CF00F830890BA629F0
:10035000CF0BA629000028308631212681310230BA
:100360002000D0000430CF00BA30890BB529CF0B64
:10037000B529D00BB52900000C30863121268131FA
:1003800002302000D0000430CF00BA30890BC629DB
:10039000CF0BC629D00BC62900000130863121269B
:1003A000813102302000D0000430CF00BA30890BF8
:1003B000D729CF0BD729D00BD7290000063086319B
:1003C0002126813102302000D0000430CF00BA3025
:1003D000890BE829CF0BE829D00BE8290000080099
:1003E0002000DB00540886008701403FD600413FD3
:1003F000D70056088400570885001200253A031DCF
:10040000022A032A482A54088600870101308107FE
:1004100041310318810AAA01AB01AE01AF01FF30DF
:10042000AC00FF30AD00540886008701403FD60085
:10043000413FD70056088400570885001200253A2E
:10044000031D232A242A3D2A5408860087010130EF
:10045000810741310318810A2530CC000030CD00DE
:100460005B08D6005608CE0083314C238131013021
:100470002000D4000030D5006B2A54088600870184
:100480000130810741310318810AD401D5016B2A5B
:10049000540886008701403FD600413FD7005608E8
:1004A0008400570885000008D800D9015808CC00FE
:1004B0005908CD005B08DA005A08CE0083314C237E
:1004C00081312000540886008701013081074131C5
:1004D0000318810A372A08008731C9278231003A78
:1004E0000319732A742AA42A812A8731F2278231B8
:1004F000C02A8731ED278231C02A8731E327823134
:10050000C02A21004F08FA007A08F9000630C03EE0
:1005100086008701413F8A00403F0A008231FB008C
:10052000FC017C08003A0319962A7D2A7B08013ACF
:1005300003197D2A033A0319752A013A0319792A06
:10054000073A03197D2A7D2A21005C101730C03E2E
:1005500086008701403F84008501810A00088F31B1
:10056000FB27823101302100D8020030D93B5808E6
:100570005904031DBC2ABD2ABF2A0630C02A0330F5
:1005800008008F31DE278231FA00210057088600EB
:1005900087017A0881000130FA007A08D707013014
:1005A000D8020030D93B580859040319D82AD92A4F
:1005B000DE2A8F31F32782310530062BDC15E82A3D
:1005C0008731D4278231062B8731D9278231062BF8
:1005D0004C08FA007A08F90041088A0040080A002D
:1005E0008231FB00FC017C08003A0319F82AE42A56
:1005F0007B08013A0319E42A033A0319E02A013A75
:100600000319E02A073A0319E42AE42A0800210022
:1006100091128D302000C9000330CA008731A52710
:1006200083312100111276302000C9000530CA0044
:1006300087319F278331083023009F0090309D0031
:1006400024309E0040309B0003309C00D1302000BD
:10065000C9000F30CA008731B1278331EB30200049
:10066000C9000F30CA008731AB278331E730200043
:10067000C9000F30CA008731B72783312000BF017E
:10068000C501C4010830CB004B08C300C201C10141
:10069000C00121009116080020004E080319512BBB
:1006A000522B572B4E08031D562B572B5C2B4C08F7
:1006B00087318B2783318C2B4E08033E86008701C0
:1006C000160001040319652B662B832B4E08033E8D
:1006D00086008701403FCF00413FD0004E0A860090
:1006E0008701403FD100413FD2005208803AD300F9
:1006F0005008803A5302031D7F2B4F085102031804
:10070000822B832B8C2B20004E0A86008701013020
:10071000810741310318810A080020004208203E69
:1007200086008701810123001D1D972B982BA32B89
:1007300020004208203E86008701811435088A0087
:1007400034080A00833123009D1CA72BA82BB32B50
:1007500020004208203E86008701011533088A00E8
:1007600032080A00833120004208203E86008701BB
:1007700001080319BC2BBD2BC32B31088A0030089C
:100780000A008331C62B8531D82583310800F73420
:1007900007346A340734833407346C340234C13488
:1007A00002349234073427340434F2340734ED34FD
:1007B0000734E8340734E3340734DE340734D934FB
:1007C0000734D4340734CF34073484340434433406
:1007D0006F34753463346F34753420346D346F3452
:1007E0006E342034663469346C347334213400340C
:1007F0002000D200132C4F08BF3E863121268331C2
:10080000262C4F08933E863121268331262C4F0813
:10081000D33E863121268331262C4F087F3E8631F8
:1008200021268331262C5208D000D1015108003AEC
:1008300003191B2C0D2C5008023A0319FB2B013A0B
:100840000319012C073A0319072C0D2C080021006D
:10085000DC15372C8731E8278431552C8F31E1277F
:1008600084310330552C8731E3278431552C4C08D3
:10087000FA007A08F90041088A0040080A00843129
:10088000FB00FC017C08003A0319472C332C7B0841
:10089000013A0319332C033A03192A2C013A03199C
:1008A0002A2C073A03192E2C332C08008F31E42709
:1008B000843121005C1C5D2C5E2C6C2C8731C92797
:1008C0008431003A0319652C662C6C2C0F30200003
:1008D000C60046082100DA0021005A082000C600A0
:1008E000C701C635C70DC730460784008330473D72
:1008F0008500013F8A00003F0A0084312000C800C3
:1009000048082100DA00080021005C100230FA00DB
:100910007A08DB00932C8731E8278431AF2C8731AC
:10092000E3278431AF2C4E08FA007A08F90004302E
:10093000C03E86008701413F8A00403F0A00843163
:10094000FB00FC017C08003A0319A72C8F2C7B08C4
:10095000023A03198B2C013A03198B2C8F2C0800B7
:100960002000CA0043080319B62CB72CB22C210072
:10097000111ABB2CBC2CC12C20004A0823009A0061
:10098000D82C111220004A08C9004508E53E86000F
:100990008701490881000130C9004908C5070830AE
:1009A0004502031CD42CD52CD62CC5010130C30222
:1009B000210011160800200040080319E02CE12C4A
:1009C000DB2C4108203E860087010108C900490848
:1009D000BF004108DD3E860087010108C9004908C3
:1009E000CA000130C9004908C10708304102031C90
:1009F000FA2CFB2CFC2CC1012100911201302000AB
:100A0000C0022100911620004A0808002000E100E1
:100A10005D08E3005C08E200A801A901202D623016
:100A2000DF005F08D4005E08E0006008D5006108C0
:100A30008131F021853120005408A8075508A93DCF
:100A400062088400630885001200031D282D292DEB
:100A50000F2D2908DD002808DC000800F4007008CC
:100A600071040319342D352D462D7435C03E860092
:100A700087017008C03F7108C13F7208F300740815
:100A8000CC3E8600870173088100532D7435C03E2B
:100A900086008701D330C03F0F30C13F7408CC3E81
:100AA0008600870181010800220090018F018C01DE
:100AB0008D018E010F3021009000FC308C00FF3042
:100AC0008D00BF308E00FF308F00FA3023008F0082
:100AD0003F308D00073090003C308C0024009001A6
:100AE0008D012100951722009D010800083020008B
:100AF000430203187C2D7D2D952D4408E53E86008C
:100B00008701010823009A000130F00070082000DE
:100B1000C40708304402031C8E2D8F2D902DC40174
:100B20000130F0007008C307972D21001112080052
:100B30002000CC004C08CB00CB0DCB0D21001D08B4
:100B400020004B0683394B0621009D001D140D30FB
:100B5000890BA82D000021009D149D18B02DB12DEA
:100B6000AD2D1C082000CA0021001B082000C90070
:100B700008002000D201D301CC2D4F085207840079
:100B80005008533D8500000886310A268531013022
:100B90002000D2070030D33D4F0852078400500890
:100BA000533D85001200031DD62DD72DBD2D080005
:100BB00023001908F00020004208DD3E860087016E
:100BC000700881000130F0007008C207083042024E
:100BD000031CEB2DEC2DED2DC2010130F00070084F
:100BE000C0070800790886008701403FF000413FB8
:100BF000F1007908023E8600870101088631FA2655
:100C000085310030F500F600F7018731272785315F
:100C1000023008002000CE00FD01FD0A4E08F03928
:100C200086313726863120004E08CD000330CD3581
:100C3000FF3E031D172E4D35F0398631372686319C
:100C400008002000CE00FD014E08F039863137261D
:100C5000863120004E08CD000330CD35FF3E031D08
:100C60002D2E4D35F039863137268631080020008B
:100C7000CC007D08CB004B08CC044C0804388631EE
:100C80004D26863120004C08FB3986314D268631B1
:100C90004230890B492E003208002000CA008731FB
:100CA000C327863120003E088631EA26863120009F
:100CB0004A086A048631EA2686318731BD278631A3
:100CC0000800873157278631853154258631873191
:100CD000342786318731FC27863187317B2786315F
:100CE000833107238631080066302000E60066085D
:100CF000E7006508DD006408DC006730E600660890
:100D0000DE00003085310625863108000130F00014
:100D10000030F10079088631FA2686310030F5007E
:100D2000F600F701873127278631043008000230AA
:100D3000F0000030F10079088631FA268631003063
:100D4000F500F600F70187312727863102300800C9
:100D50000130F0000030F10079088631FA26863142
:100D60000030F500F600F701873127278631023081
:100D700008000230F0000030F10079088631FA26D0
:100D800086310030F500F600F701873127278631DC
:100D90000430080020342D343E3420344C344534A3
:100DA000443420344F3446344634213421340D3415
:100DB0000A34003442346F346E346A346F3475341C
:100DC000723420344534733474346534623461349D
:100DD0006E3400342000C90087314027863120005E
:100DE0004908240091002000911DF72EF82EF32EC3
:100DF00091110800F3002100DC1DFF2E002F092FA8
:100E00007308F2007208D7007108D9007008D80082
:100E1000DC11080020342D343E3420344C34453469
:100E2000443420344F344E34213421340D340A34C8
:100E30000034533461346C347534743420344534A4
:100E4000733474346534623461346E34003476083B
:100E5000F1007508F0007708F8007808F20000301B
:100E600085312E25873108007030210099009801C6
:100E70002200960121001A1F3E2F3F2F3A2F080013
:100E800024001419442F452F402F16081F39031D25
:100E90004A2F4B2F402F0800283024009500960140
:100EA00094012730920021008E150E160800C030E4
:100EB000240094000830950096014F30920095125E
:100EC0000800483465346C346C346F3421340D348C
:100ED0000A34003421005C140314560D8F31FB27B3
:100EE00087310530080043346F34753463346F3410
:100EF000753421340034F03021009E009B019C01A8
:100F000001309D00080021005C1456358F31FB270D
:100F10008731033008002000CB004B088431B02417
:100F20008731080021005C108F31DB2787310430C6
:100F30000800640080010131890B9A2F00342000E1
:100F40004A08B9004908B800080020004A08B7005C
:100F50004908B600080020004A08B3004908B2005A
:100F6000080020004A08B5004908B4000800200025
:100F70004A08B1004908B00008008731402787318E
:100F800024001615080087314027873124001614E5
:100F900008002400160E890C890C01390800210074
:100FA000DC10DB010E3008008F31EF27873109306C
:100FB00008008F31EF2787310A3008008F31F3277F
:100FC0008731053008008F31D8278731003008007D
:100FD0008F31D5278731013008008F31D5278731F0
:100FE000023008008F31D5278731013008002100F9
:100FF000DC10DB010E3008001630210097000800DD
:101FA20008000834013008002400961408002400B8
:101FB20016150800240096150800240011080800D0
:101FC2002000911508002000911108008531D825C4
:101FD2008F31080023001D121D16080024009616DA
:101FE200161608002400961216160800843156248C
:0E1FF2008F310800F0007008240091000800F4
:020000040001F9
:08000000FF3FFF3FFF3FFF3F00
:04000E00E43FFF3F8D
:00000001FF
